{
  "contractName": "Flatanywhere",
  "abi": [
    {
      "inputs": [],
      "payable": true,
      "stateMutability": "payable",
      "type": "constructor"
    },
    {
      "payable": true,
      "stateMutability": "payable",
      "type": "fallback"
    },
    {
      "anonymous": false,
      "inputs": [
        {
          "indexed": false,
          "name": "SLID",
          "type": "bytes32"
        },
        {
          "indexed": true,
          "name": "owner",
          "type": "address"
        },
        {
          "indexed": true,
          "name": "serialNum",
          "type": "uint256"
        }
      ],
      "name": "NewSmartLock",
      "type": "event"
    },
    {
      "anonymous": false,
      "inputs": [
        {
          "indexed": false,
          "name": "DEALID",
          "type": "bytes32"
        },
        {
          "indexed": true,
          "name": "SLID",
          "type": "bytes32"
        },
        {
          "indexed": true,
          "name": "sellerAddr",
          "type": "address"
        },
        {
          "indexed": false,
          "name": "buyerAddr",
          "type": "address"
        },
        {
          "indexed": false,
          "name": "totalAmount",
          "type": "uint256"
        },
        {
          "indexed": false,
          "name": "checkInTime",
          "type": "uint256"
        },
        {
          "indexed": false,
          "name": "checkOutTime",
          "type": "uint256"
        }
      ],
      "name": "NewDeal",
      "type": "event"
    },
    {
      "anonymous": false,
      "inputs": [
        {
          "indexed": true,
          "name": "SLID",
          "type": "bytes32"
        },
        {
          "indexed": false,
          "name": "success",
          "type": "bool"
        }
      ],
      "name": "DeleteLock",
      "type": "event"
    },
    {
      "anonymous": false,
      "inputs": [
        {
          "indexed": true,
          "name": "DEALID",
          "type": "bytes32"
        },
        {
          "indexed": false,
          "name": "SLID",
          "type": "bytes32"
        },
        {
          "indexed": false,
          "name": "totalAmount",
          "type": "uint256"
        },
        {
          "indexed": true,
          "name": "sellerAddr",
          "type": "address"
        }
      ],
      "name": "WithdrawableDeal",
      "type": "event"
    },
    {
      "anonymous": false,
      "inputs": [
        {
          "indexed": false,
          "name": "sender",
          "type": "address"
        },
        {
          "indexed": true,
          "name": "serialNum",
          "type": "uint256"
        },
        {
          "indexed": false,
          "name": "time",
          "type": "uint256"
        }
      ],
      "name": "Newunlock",
      "type": "event"
    },
    {
      "anonymous": false,
      "inputs": [
        {
          "indexed": false,
          "name": "sender",
          "type": "address"
        },
        {
          "indexed": true,
          "name": "host",
          "type": "address"
        },
        {
          "indexed": false,
          "name": "time",
          "type": "uint256"
        }
      ],
      "name": "SetNewUser",
      "type": "event"
    },
    {
      "anonymous": false,
      "inputs": [
        {
          "indexed": false,
          "name": "sender",
          "type": "address"
        },
        {
          "indexed": true,
          "name": "host",
          "type": "address"
        },
        {
          "indexed": false,
          "name": "time",
          "type": "uint256"
        }
      ],
      "name": "HostRefresh",
      "type": "event"
    },
    {
      "constant": false,
      "inputs": [
        {
          "name": "serialNum",
          "type": "uint256"
        },
        {
          "name": "_unitPrice",
          "type": "uint256"
        },
        {
          "name": "_startTime",
          "type": "uint256"
        },
        {
          "name": "_endTime",
          "type": "uint256"
        },
        {
          "name": "_now",
          "type": "uint256"
        }
      ],
      "name": "CreateSmartLock",
      "outputs": [
        {
          "name": "_lockID",
          "type": "bytes32"
        }
      ],
      "payable": false,
      "stateMutability": "nonpayable",
      "type": "function"
    },
    {
      "constant": false,
      "inputs": [
        {
          "name": "SLID",
          "type": "bytes32"
        },
        {
          "name": "owner",
          "type": "address"
        }
      ],
      "name": "DeleteSmartLock",
      "outputs": [
        {
          "name": "success",
          "type": "bool"
        }
      ],
      "payable": false,
      "stateMutability": "nonpayable",
      "type": "function"
    },
    {
      "constant": false,
      "inputs": [
        {
          "name": "SLID",
          "type": "bytes32"
        },
        {
          "name": "sellerAddr",
          "type": "address"
        },
        {
          "name": "checkInTime",
          "type": "uint256"
        },
        {
          "name": "checkOutTime",
          "type": "uint256"
        }
      ],
      "name": "CreateDeal",
      "outputs": [
        {
          "name": "DEALID",
          "type": "bytes32"
        }
      ],
      "payable": true,
      "stateMutability": "payable",
      "type": "function"
    },
    {
      "constant": false,
      "inputs": [
        {
          "name": "SLID",
          "type": "bytes32"
        },
        {
          "name": "DEALID",
          "type": "bytes32"
        }
      ],
      "name": "CheckIn",
      "outputs": [
        {
          "name": "success",
          "type": "bool"
        }
      ],
      "payable": false,
      "stateMutability": "nonpayable",
      "type": "function"
    },
    {
      "constant": true,
      "inputs": [
        {
          "name": "_SLID",
          "type": "bytes32"
        }
      ],
      "name": "getSmartLock",
      "outputs": [
        {
          "name": "SLID",
          "type": "bytes32"
        },
        {
          "name": "owner",
          "type": "address"
        },
        {
          "name": "unitPrice",
          "type": "uint256"
        },
        {
          "name": "startTime",
          "type": "uint256"
        },
        {
          "name": "endTime",
          "type": "uint256"
        }
      ],
      "payable": false,
      "stateMutability": "view",
      "type": "function"
    },
    {
      "constant": true,
      "inputs": [
        {
          "name": "_DEALID",
          "type": "bytes32"
        }
      ],
      "name": "getDeal",
      "outputs": [
        {
          "name": "SLID",
          "type": "bytes32"
        },
        {
          "name": "sellerAddr",
          "type": "address"
        },
        {
          "name": "buyerAddr",
          "type": "address"
        },
        {
          "name": "totalAmount",
          "type": "uint256"
        },
        {
          "name": "checkInTime",
          "type": "uint256"
        },
        {
          "name": "checkOutTime",
          "type": "uint256"
        }
      ],
      "payable": false,
      "stateMutability": "view",
      "type": "function"
    },
    {
      "constant": true,
      "inputs": [],
      "name": "getCreator",
      "outputs": [
        {
          "name": "_c",
          "type": "address"
        }
      ],
      "payable": false,
      "stateMutability": "view",
      "type": "function"
    },
    {
      "constant": true,
      "inputs": [],
      "name": "getContractBalance",
      "outputs": [
        {
          "name": "balance",
          "type": "uint256"
        }
      ],
      "payable": false,
      "stateMutability": "view",
      "type": "function"
    },
    {
      "constant": false,
      "inputs": [
        {
          "name": "SLID",
          "type": "bytes32"
        }
      ],
      "name": "unlock",
      "outputs": [],
      "payable": false,
      "stateMutability": "nonpayable",
      "type": "function"
    },
    {
      "constant": false,
      "inputs": [
        {
          "name": "hostaddr",
          "type": "address"
        }
      ],
      "name": "purchase",
      "outputs": [],
      "payable": false,
      "stateMutability": "nonpayable",
      "type": "function"
    },
    {
      "constant": false,
      "inputs": [
        {
          "name": "hostaddr",
          "type": "address"
        }
      ],
      "name": "refresh",
      "outputs": [],
      "payable": false,
      "stateMutability": "nonpayable",
      "type": "function"
    },
    {
      "constant": true,
      "inputs": [],
      "name": "checkConnection",
      "outputs": [
        {
          "name": "a",
          "type": "address"
        }
      ],
      "payable": false,
      "stateMutability": "view",
      "type": "function"
    }
  ],
  "bytecode": "0x6080604052336000806101000a81548173ffffffffffffffffffffffffffffffffffffffff021916908373ffffffffffffffffffffffffffffffffffffffff160217905550611a0a806100536000396000f3006080604052600436106100ba576000357c0100000000000000000000000000000000000000000000000000000000900463ffffffff1680630afb0409146100bc5780630ee2cb10146100ff57806325b31a97146101565780634959692d1461019957806351a6fad51461022e57806356279a7e146102f65780636ec5330b1461034d5780636f9fb98a146103a4578063afeaa66f146103cf578063c63b9fa914610443578063ec9b5b3a146104b4578063ff369518146104e5575b005b3480156100c857600080fd5b506100fd600480360381019080803573ffffffffffffffffffffffffffffffffffffffff16906020019092919050505061054e565b005b34801561010b57600080fd5b506101146105d3565b604051808273ffffffffffffffffffffffffffffffffffffffff1673ffffffffffffffffffffffffffffffffffffffff16815260200191505060405180910390f35b34801561016257600080fd5b50610197600480360381019080803573ffffffffffffffffffffffffffffffffffffffff1690602001909291905050506105fc565b005b3480156101a557600080fd5b506101c86004803603810190808035600019169060200190929190505050610681565b6040518086600019166000191681526020018573ffffffffffffffffffffffffffffffffffffffff1673ffffffffffffffffffffffffffffffffffffffff1681526020018481526020018381526020018281526020019550505050505060405180910390f35b34801561023a57600080fd5b5061025d600480360381019080803560001916906020019092919050505061079a565b6040518087600019166000191681526020018673ffffffffffffffffffffffffffffffffffffffff1673ffffffffffffffffffffffffffffffffffffffff1681526020018573ffffffffffffffffffffffffffffffffffffffff1673ffffffffffffffffffffffffffffffffffffffff168152602001848152602001838152602001828152602001965050505050505060405180910390f35b34801561030257600080fd5b5061030b61091b565b604051808273ffffffffffffffffffffffffffffffffffffffff1673ffffffffffffffffffffffffffffffffffffffff16815260200191505060405180910390f35b34801561035957600080fd5b5061038a60048036038101908080356000191690602001909291908035600019169060200190929190505050610923565b604051808215151515815260200191505060405180910390f35b3480156103b057600080fd5b506103b9610be6565b6040518082815260200191505060405180910390f35b6104256004803603810190808035600019169060200190929190803573ffffffffffffffffffffffffffffffffffffffff1690602001909291908035906020019092919080359060200190929190505050610c05565b60405180826000191660001916815260200191505060405180910390f35b34801561044f57600080fd5b50610496600480360381019080803590602001909291908035906020019092919080359060200190929190803590602001909291908035906020019092919050505061129b565b60405180826000191660001916815260200191505060405180910390f35b3480156104c057600080fd5b506104e360048036038101908080356000191690602001909291905050506115b1565b005b3480156104f157600080fd5b506105346004803603810190808035600019169060200190929190803573ffffffffffffffffffffffffffffffffffffffff16906020019092919050505061163e565b604051808215151515815260200191505060405180910390f35b8073ffffffffffffffffffffffffffffffffffffffff167f96f75ad225e1cc38d7404aca5c4acc9fcbad268bbe18bad9e4a5c6670e3d48713342604051808373ffffffffffffffffffffffffffffffffffffffff1673ffffffffffffffffffffffffffffffffffffffff1681526020018281526020019250505060405180910390a250565b60008060009054906101000a900473ffffffffffffffffffffffffffffffffffffffff16905090565b8073ffffffffffffffffffffffffffffffffffffffff167fefe9599cd3eda3c641fdbbcba9ce7db414c32bd8e2038884defbaa34e1b1e8113342604051808373ffffffffffffffffffffffffffffffffffffffff1673ffffffffffffffffffffffffffffffffffffffff1681526020018281526020019250505060405180910390a250565b6000806000806000806001151561069788611879565b1515141515610734576040517f08c379a00000000000000000000000000000000000000000000000000000000081526004018080602001828103825260248152602001807f4578697374536d6172744c6f636b3a20536d6172744c6f636b204e6f7420457881526020017f697374210000000000000000000000000000000000000000000000000000000081525060400191505060405180910390fd5b6002600088600019166000191681526020019081526020016000209050868160010160009054906101000a900473ffffffffffffffffffffffffffffffffffffffff16826002015483600301548460040154955095509550955095505091939590929450565b600080600080600080600087600073ffffffffffffffffffffffffffffffffffffffff1660016000836000191660001916815260200190815260200160002060020160009054906101000a900473ffffffffffffffffffffffffffffffffffffffff1673ffffffffffffffffffffffffffffffffffffffff1614151515610889576040517f08c379a000000000000000000000000000000000000000000000000000000000815260040180806020018281038252601a8152602001807f45786973744465616c3a204465616c204e6f742045786973742100000000000081525060200191505060405180910390fd5b600160008a60001916600019168152602001908152602001600020915081600101548260020160009054906101000a900473ffffffffffffffffffffffffffffffffffffffff168360030160009054906101000a900473ffffffffffffffffffffffffffffffffffffffff16846004015485600501548660060154975097509750975097509750505091939550919395565b600030905090565b60006001151561093284611879565b15151415156109cf576040517f08c379a00000000000000000000000000000000000000000000000000000000081526004018080602001828103825260248152602001807f4578697374536d6172744c6f636b3a20536d6172744c6f636b204e6f7420457881526020017f697374210000000000000000000000000000000000000000000000000000000081525060400191505060405180910390fd5b600115156109dd83336118f0565b1515141515610a7a576040517f08c379a00000000000000000000000000000000000000000000000000000000081526004018080602001828103825260358152602001807f427579536d6172744c6f636b3a2043757272656e74207573657220686173206e81526020017f6f7420626f756768742074686973206c6f636b2120000000000000000000000081525060400191505060405180910390fd5b60016000836000191660001916815260200190815260200160002060020160009054906101000a900473ffffffffffffffffffffffffffffffffffffffff1673ffffffffffffffffffffffffffffffffffffffff166108fc600160008560001916600019168152602001908152602001600020600401549081150290604051600060405180830381858888f19350505050158015610b1c573d6000803e3d6000fd5b506001905060016000836000191660001916815260200190815260200160002060020160009054906101000a900473ffffffffffffffffffffffffffffffffffffffff1673ffffffffffffffffffffffffffffffffffffffff1682600019167f384181f1a242cd7d7d6f63a5e9ea15e0c0096be14bbb2423365df4fec3ca313a85600160008760001916600019168152602001908152602001600020600401546040518083600019166000191681526020018281526020019250505060405180910390a392915050565b60003073ffffffffffffffffffffffffffffffffffffffff1631905090565b60008483838082101515610ca7576040517f08c379a000000000000000000000000000000000000000000000000000000000815260040180806020018281038252603c8152602001807f56616c69644475726174696f6e3a20636865636b496e54696d65206973206e6f81526020017f742067726561746572207468616e20636865636b4f757454696d65210000000081525060400191505060405180910390fd5b816002600085600019166000191681526020019081526020016000206003015411151515610d63576040517f08c379a00000000000000000000000000000000000000000000000000000000081526004018080602001828103825260358152602001807f56616c69644475726174696f6e3a20737461727454696d65206973206772656181526020017f746572207468616e20636865636b496e54696d6521000000000000000000000081525060400191505060405180910390fd5b806002600085600019166000191681526020019081526020016000206004015410151515610e1f576040517f08c379a00000000000000000000000000000000000000000000000000000000081526004018080602001828103825260348152602001807f56616c69644475726174696f6e3a20636865636b4f757454696d65206973206781526020017f726561746572207468616e20656e6454696d652100000000000000000000000081525060400191505060405180910390fd5b60011515610e2c89611879565b1515141515610ec9576040517f08c379a00000000000000000000000000000000000000000000000000000000081526004018080602001828103825260248152602001807f4578697374536d6172744c6f636b3a20536d6172744c6f636b204e6f7420457881526020017f697374210000000000000000000000000000000000000000000000000000000081525060400191505060405180910390fd5b60011515610ed78989611967565b1515141515610f74576040517f08c379a00000000000000000000000000000000000000000000000000000000081526004018080602001828103825260328152602001807f4f776e536d6172744c6f636b3a2043757272656e74207573657220646f65732081526020017f6e6f74206f776e2074686973206c6f636b21000000000000000000000000000081525060400191505060405180910390fd5b873387426040516020018085600019166000191681526020018473ffffffffffffffffffffffffffffffffffffffff1673ffffffffffffffffffffffffffffffffffffffff166c010000000000000000000000000281526014018381526020018281526020019450505050506040516020818303038152906040526040518082805190602001908083835b6020831015156110245780518252602082019150602081019050602083039250610fff565b6001836020036101000a0380198251168184511680821785525050505050509050019150506040518091039020935060e06040519081016040528085600019168152602001896000191681526020018873ffffffffffffffffffffffffffffffffffffffff1681526020013373ffffffffffffffffffffffffffffffffffffffff16815260200134815260200187815260200186815250600160008660001916600019168152602001908152602001600020600082015181600001906000191690556020820151816001019060001916905560408201518160020160006101000a81548173ffffffffffffffffffffffffffffffffffffffff021916908373ffffffffffffffffffffffffffffffffffffffff16021790555060608201518160030160006101000a81548173ffffffffffffffffffffffffffffffffffffffff021916908373ffffffffffffffffffffffffffffffffffffffff1602179055506080820151816004015560a0820151816005015560c0820151816006015590505084600360008a600019166000191681526020019081526020016000205410156111e95784600360008a60001916600019168152602001908152602001600020819055505b8673ffffffffffffffffffffffffffffffffffffffff1688600019167f1648903fa7e12013212ff3b4394e1d64eeb625ccc347889e795df855a0f7d4988633348b8b6040518086600019166000191681526020018573ffffffffffffffffffffffffffffffffffffffff1673ffffffffffffffffffffffffffffffffffffffff1681526020018481526020018381526020018281526020019550505050505060405180910390a3505050949350505050565b60003382604051602001808373ffffffffffffffffffffffffffffffffffffffff1673ffffffffffffffffffffffffffffffffffffffff166c01000000000000000000000000028152601401828152602001925050506040516020818303038152906040526040518082805190602001908083835b6020831015156113355780518252602082019150602081019050602083039250611310565b6001836020036101000a03801982511681845116808217855250505050505090500191505060405180910390209050600073ffffffffffffffffffffffffffffffffffffffff1660026000836000191660001916815260200190815260200160002060010160009054906101000a900473ffffffffffffffffffffffffffffffffffffffff1673ffffffffffffffffffffffffffffffffffffffff1614151561146c576040517f08c379a00000000000000000000000000000000000000000000000000000000081526004018080602001828103825260318152602001807f437265617465536d6172744c6f636b20526571756972653a20536d6172744c6f81526020017f636b20416c72656164792045786973742100000000000000000000000000000081525060400191505060405180910390fd5b60c060405190810160405280826000191681526020013373ffffffffffffffffffffffffffffffffffffffff168152602001868152602001858152602001848152602001878152506002600083600019166000191681526020019081526020016000206000820151816000019060001916905560208201518160010160006101000a81548173ffffffffffffffffffffffffffffffffffffffff021916908373ffffffffffffffffffffffffffffffffffffffff16021790555060408201518160020155606082015181600301556080820151816004015560a08201518160050155905050853373ffffffffffffffffffffffffffffffffffffffff167f0879d1505359ae55eccbae6ea861de365d5502aec30c740d700a4bfd972497368360405180826000191660001916815260200191505060405180910390a395945050505050565b600260008260001916600019168152602001908152602001600020600501547f81044835dee144eb502d1a29aec9a78dac08c55731426ed415de945a3ad583a33342604051808373ffffffffffffffffffffffffffffffffffffffff1673ffffffffffffffffffffffffffffffffffffffff1681526020018281526020019250505060405180910390a250565b60006001151561164d84611879565b15151415156116ea576040517f08c379a00000000000000000000000000000000000000000000000000000000081526004018080602001828103825260248152602001807f4578697374536d6172744c6f636b3a20536d6172744c6f636b204e6f7420457881526020017f697374210000000000000000000000000000000000000000000000000000000081525060400191505060405180910390fd5b600115156116f88484611967565b1515141515611795576040517f08c379a00000000000000000000000000000000000000000000000000000000081526004018080602001828103825260328152602001807f4f776e536d6172744c6f636b3a2043757272656e74207573657220646f65732081526020017f6e6f74206f776e2074686973206c6f636b21000000000000000000000000000081525060400191505060405180910390fd5b4260036000856000191660001916815260200190815260200160002054101561182e576002600084600019166000191681526020019081526020016000206000808201600090556001820160006101000a81549073ffffffffffffffffffffffffffffffffffffffff02191690556002820160009055600382016000905560048201600090556005820160009055505060019050611833565b600090505b82600019167f06d2a6826201047dc760b065ab75cda1fbb8ae2f267eeda3c962daf5cec62de182604051808215151515815260200191505060405180910390a292915050565b60008073ffffffffffffffffffffffffffffffffffffffff1660026000846000191660001916815260200190815260200160002060010160009054906101000a900473ffffffffffffffffffffffffffffffffffffffff1673ffffffffffffffffffffffffffffffffffffffff1614159050919050565b60008173ffffffffffffffffffffffffffffffffffffffff1660016000856000191660001916815260200190815260200160002060030160009054906101000a900473ffffffffffffffffffffffffffffffffffffffff1673ffffffffffffffffffffffffffffffffffffffff1614905092915050565b60008173ffffffffffffffffffffffffffffffffffffffff1660026000856000191660001916815260200190815260200160002060010160009054906101000a900473ffffffffffffffffffffffffffffffffffffffff1673ffffffffffffffffffffffffffffffffffffffff16149050929150505600a165627a7a723058200b8947d962819d377890aeb99bd69b4d16337970aca701506320e290bd10c54e0029",
  "source": "pragma solidity ^0.4.24;\r\ncontract Flatanywhere {\r\n  /*\r\n  * globol variable\r\n  */\r\n  address creator;\r\n\r\n  struct SmartLock {\r\n    bytes32 SLID;\r\n    address owner;\r\n    uint256 unitPrice;\r\n    uint256 startTime;\r\n    uint256 endTime;\r\n    uint256 serialNum;\r\n  }\r\n\r\n  struct Deal {\r\n    bytes32 DEALID;\r\n    bytes32 SLID;\r\n    address sellerAddr;\r\n    address buyerAddr;\r\n    uint256 totalAmount;\r\n    uint256 checkInTime;\r\n    uint256 checkOutTime;\r\n  }\r\n\r\n  mapping(bytes32=>Deal) Deals;\r\n  mapping(bytes32=>SmartLock) SmartLocks;\r\n  mapping(bytes32=>uint256) LastCheckOutTimeList;\r\n\r\n  /*\r\n  * event declear\r\n  */\r\n  event NewSmartLock(\r\n    bytes32 SLID,\r\n    address indexed owner,\r\n    uint256 indexed serialNum\r\n  );\r\n\r\n  event NewDeal(\r\n    bytes32 DEALID,\r\n    bytes32 indexed SLID,\r\n    address indexed sellerAddr,\r\n    address buyerAddr,\r\n    uint256 totalAmount,\r\n    uint256 checkInTime,\r\n    uint256 checkOutTime\r\n  );\r\n\r\n  event DeleteLock(\r\n    bytes32 indexed SLID,\r\n    bool success\r\n  );\r\n\r\n  event WithdrawableDeal(\r\n    bytes32 indexed DEALID,\r\n    bytes32 SLID,\r\n    uint256 totalAmount,\r\n    address indexed sellerAddr\r\n  );\r\n\r\n  event Newunlock(\r\n    address sender,\r\n    uint256 indexed serialNum,\r\n    uint256 time\r\n  );\r\n\r\n  event SetNewUser(\r\n     address sender,\r\n     address indexed host,\r\n     uint256 time\r\n   );\r\n\r\n   event HostRefresh(\r\n    address sender,\r\n    address indexed host,\r\n    uint256 time\r\n   );\r\n\r\n   /**\r\n   * modifier part\r\n   */\r\n\r\n  modifier ValidDuration(bytes32 _SLID, uint256 checkInTime, uint256 checkOutTime) {\r\n    require(checkInTime < checkOutTime, \"ValidDuration: checkInTime is not greater than checkOutTime!\");\r\n    require(SmartLocks[_SLID].startTime <= checkInTime, \"ValidDuration: startTime is greater than checkInTime!\");\r\n    require(SmartLocks[_SLID].endTime >= checkOutTime, \"ValidDuration: checkOutTime is greater than endTime!\");\r\n    _;\r\n  }\r\n\r\n  modifier ExistDeal(bytes32 _DEALID) {\r\n    require(Deals[_DEALID].sellerAddr != address(0),\"ExistDeal: Deal Not Exist!\");\r\n    _;\r\n  }\r\n\r\n  /*\r\n  * contract part\r\n  */\r\n  constructor() public payable {\r\n    creator=msg.sender;\r\n  }\r\n\r\n  /**\r\n  * Smart Lock functions\r\n  * CreateSmartLock : create smart lock\r\n  * DeleteSmartLock : delete smart lock\r\n  */\r\n\r\n  function ExistSmartLock(bytes32 _SLID)\r\n    internal\r\n    view\r\n    returns (bool exist)\r\n  {\r\n    exist = (SmartLocks[_SLID].owner != address(0));\r\n  }\r\n\r\n  function OwnSmartLock(bytes32 _SLID, address _owner)\r\n    internal\r\n    view\r\n    returns (bool own)\r\n  {\r\n    own = (SmartLocks[_SLID].owner == _owner);\r\n  }\r\n\r\n  function BuySmartLock(bytes32 DEALID, address _buyer)\r\n    internal\r\n    view\r\n    returns (bool buy)\r\n  {\r\n    buy = (Deals[DEALID].buyerAddr == _buyer);\r\n  }\r\n\r\n  function CreateSmartLock(uint256 serialNum, uint256 _unitPrice, uint256 _startTime, uint256 _endTime, uint256 _now)\r\n    external\r\n    returns (bytes32 _lockID)\r\n  {\r\n    _lockID = keccak256(abi.encodePacked(msg.sender, _now)); // keccak256 is cheaper than sha256\r\n    require(SmartLocks[_lockID].owner == address(0),\"CreateSmartLock Require: SmartLock Already Exist!\");\r\n    SmartLocks[_lockID] = SmartLock(\r\n      _lockID,\r\n      msg.sender,\r\n      _unitPrice,\r\n      _startTime,\r\n      _endTime,\r\n      serialNum);\r\n    emit NewSmartLock(_lockID, msg.sender, serialNum);\r\n  }\r\n\r\n  function DeleteSmartLock(bytes32 SLID, address owner)\r\n    external\r\n    returns (bool success)\r\n  {\r\n    require(ExistSmartLock(SLID) == true, \"ExistSmartLock: SmartLock Not Exist!\");\r\n    require(OwnSmartLock(SLID, owner) == true, \"OwnSmartLock: Current user does not own this lock!\");\r\n    if (LastCheckOutTimeList[SLID] < now){\r\n      delete SmartLocks[SLID];\r\n      success = true;\r\n    } else {\r\n      success = false;\r\n    }\r\n    emit DeleteLock(SLID, success);\r\n  }\r\n\r\n  function CreateDeal(bytes32 SLID, address sellerAddr, uint256 checkInTime, uint256 checkOutTime)\r\n    external\r\n    payable\r\n    ValidDuration(SLID, checkInTime, checkOutTime)\r\n    returns (bytes32 DEALID)\r\n  {\r\n    require(ExistSmartLock(SLID) == true, \"ExistSmartLock: SmartLock Not Exist!\");\r\n    require(OwnSmartLock(SLID, sellerAddr) == true, \"OwnSmartLock: Current user does not own this lock!\");\r\n\r\n    DEALID = keccak256(abi.encodePacked(\r\n      SLID,\r\n      msg.sender,\r\n      checkInTime,\r\n      now));\r\n    // require(Deals[DEALID].sellerAddr == address(0), \"CreateDeal Require: Deal Already Exist!\");\r\n    // uint256 totalAmount = ((checkOutTime - checkInTime) / (60 * 60 * 24)) * SmartLocks[SLID].unitPrice * 10 * 1 finney;\r\n    // transform from second to day; transform the unit of price from 0.01ETH to 1ETH;\r\n    Deals[DEALID] = Deal(\r\n      DEALID,\r\n      SLID,\r\n      sellerAddr,\r\n      msg.sender,\r\n      msg.value,\r\n      checkInTime,\r\n      checkOutTime);\r\n\r\n    if(LastCheckOutTimeList[SLID] < checkOutTime){\r\n      LastCheckOutTimeList[SLID] = checkOutTime;\r\n    }\r\n\r\n    emit NewDeal(\r\n      DEALID,\r\n      SLID,\r\n      sellerAddr,\r\n      msg.sender,\r\n      msg.value,\r\n      checkInTime,\r\n      checkOutTime);\r\n  }\r\n\r\n  function CheckIn(bytes32 SLID, bytes32 DEALID)\r\n    external\r\n    returns (bool success)\r\n  {\r\n    require(ExistSmartLock(SLID) == true, \"ExistSmartLock: SmartLock Not Exist!\");\r\n    require(BuySmartLock(DEALID, msg.sender) == true, \"BuySmartLock: Current user has not bought this lock! \");\r\n    Deals[DEALID].sellerAddr.transfer(Deals[DEALID].totalAmount);\r\n    success = true;\r\n    emit WithdrawableDeal(\r\n      DEALID,\r\n      SLID,\r\n      Deals[DEALID].totalAmount,\r\n      Deals[DEALID].sellerAddr\r\n    );\r\n  }\r\n\r\n  /*\r\n  * Get function for checking the contract and lock info\r\n  *\r\n  */\r\n\r\n  function getSmartLock(bytes32 _SLID)\r\n    public\r\n    view\r\n    returns(bytes32 SLID, address owner, uint256 unitPrice, uint256 startTime, uint256 endTime)\r\n  {\r\n    require(ExistSmartLock(_SLID) == true, \"ExistSmartLock: SmartLock Not Exist!\");\r\n    SmartLock storage c = SmartLocks[_SLID];\r\n    return (_SLID, c.owner, c.unitPrice, c.startTime, c.endTime);\r\n  }\r\n\r\n  function getDeal(bytes32 _DEALID)\r\n    public\r\n    view\r\n    ExistDeal(_DEALID)\r\n    returns(\r\n      bytes32 SLID,\r\n      address sellerAddr,\r\n      address buyerAddr,\r\n      uint256 totalAmount,\r\n      uint256 checkInTime,\r\n      uint256 checkOutTime)\r\n  {\r\n    Deal storage d = Deals[_DEALID];\r\n    return (d.SLID, d.sellerAddr, d.buyerAddr, d.totalAmount,\r\n      d.checkInTime, d.checkOutTime);\r\n  }\r\n\r\n  function getCreator()\r\n    public\r\n    view\r\n    returns(address _c)\r\n  {\r\n    _c = creator;\r\n  }\r\n\r\n  function getContractBalance()\r\n    public\r\n    view\r\n    returns(uint256 balance)\r\n  {\r\n    balance = address(this).balance;\r\n  }\r\n\r\n  // Smart Lock Control Part\r\n  function unlock(bytes32 SLID)\r\n    external\r\n  {\r\n    emit Newunlock(msg.sender, SmartLocks[SLID].serialNum, now);\r\n  }\r\n\r\n  function purchase(address hostaddr)\r\n    external\r\n  {\r\n    emit SetNewUser(msg.sender, hostaddr, now);\r\n  }\r\n\r\n  function refresh(address hostaddr)\r\n    external\r\n  {\r\n    emit HostRefresh(msg.sender, hostaddr, now);\r\n  }\r\n\r\n  function checkConnection()\r\n    external\r\n    view\r\n  returns(address a)\r\n  {\r\n    a = address(this);\r\n  }\r\n\r\n  function() external payable\r\n  {\r\n\r\n  }\r\n\r\n}\r\n// pragma solidity ^0.4.24;\r\n// contract Flatanywhere {\r\n//   /*\r\n//   * globol variable\r\n//   */\r\n//   address creator;\r\n\r\n//   struct SmartLock {\r\n//     bytes32 SLID;\r\n//     address owner;\r\n//     uint256 unitPrice;\r\n//     uint256 startTime;\r\n//     uint256 endTime;\r\n//     bytes32 serialNum;\r\n//   }\r\n\r\n//   struct Deal {\r\n//     bytes32 DEALID;\r\n//     bytes32 SLID;\r\n//     address sellerAddr;\r\n//     address buyerAddr;\r\n//     uint256 totalAmount;\r\n//     uint256 checkInTime;\r\n//     uint256 checkOutTime;\r\n//   }\r\n\r\n//   mapping(bytes32=>Deal) Deals;\r\n//   mapping(bytes32=>SmartLock) SmartLocks;\r\n//   mapping(bytes32=>uint256) LastCheckOutTimeList;\r\n\r\n//   /*\r\n//   * event declear\r\n//   */\r\n//   event NewSmartLock(\r\n//     bytes32 SLID,\r\n//     address indexed owner,\r\n//     bytes32 indexed serialNum\r\n//   );\r\n\r\n//   event NewDeal(\r\n//     bytes32 DEALID,\r\n//     bytes32 indexed SLID,\r\n//     address indexed sellerAddr,\r\n//     address buyerAddr,\r\n//     uint256 totalAmount,\r\n//     uint256 checkInTime,\r\n//     uint256 checkOutTime\r\n//   );\r\n\r\n//   event DeleteLock(\r\n//     bytes32 indexed SLID,\r\n//     bool success\r\n//   );\r\n\r\n//   event WithdrawableDeal(\r\n//     bytes32 indexed DEALID,\r\n//     bytes32 SLID,\r\n//     uint256 totalAmount,\r\n//     address indexed sellerAddr\r\n//   );\r\n\r\n//   event Newunlock(\r\n//     address sender,\r\n//     bytes32 indexed serialNum,\r\n//     uint256 time\r\n//   );\r\n\r\n//   event SetNewUser(\r\n//      address sender,\r\n//      address indexed host,\r\n//      uint256 time\r\n//    );\r\n\r\n//    event HostRefresh(\r\n//     address sender,\r\n//     address indexed host,\r\n//     uint256 time\r\n//    );\r\n\r\n//    /**\r\n//    * modifier part\r\n//    */\r\n\r\n//   modifier ValidDuration(bytes32 _SLID, uint256 checkInTime, uint256 checkOutTime) {\r\n//     require(checkInTime < checkOutTime, \"ValidDuration: checkInTime is not greater than checkOutTime!\");\r\n//     require(SmartLocks[_SLID].startTime <= checkInTime, \"ValidDuration: startTime is greater than checkInTime!\");\r\n//     require(SmartLocks[_SLID].endTime >= checkOutTime, \"ValidDuration: checkOutTime is greater than endTime!\");\r\n//     _;\r\n//   }\r\n\r\n//   modifier ExistDeal(bytes32 _DEALID) {\r\n//     require(Deals[_DEALID].sellerAddr != address(0),\"ExistDeal: Deal Not Exist!\");\r\n//     _;\r\n//   }\r\n\r\n//   /*\r\n//   * contract part\r\n//   */\r\n//   constructor() public payable {\r\n//     creator=msg.sender;\r\n//   }\r\n\r\n//   /**\r\n//   * Smart Lock functions\r\n//   * CreateSmartLock : create smart lock\r\n//   * DeleteSmartLock : delete smart lock\r\n//   */\r\n\r\n//   function ExistSmartLock(bytes32 _SLID)\r\n//     internal\r\n//     view\r\n//     returns (bool exist)\r\n//   {\r\n//     exist = (SmartLocks[_SLID].owner != address(0));\r\n//   }\r\n\r\n//   function OwnSmartLock(bytes32 _SLID, address _owner)\r\n//     internal\r\n//     view\r\n//     returns (bool own)\r\n//   {\r\n//     own = (SmartLocks[_SLID].owner == _owner);\r\n//   }\r\n\r\n//   function BuySmartLock(bytes32 DEALID, address _buyer)\r\n//     internal\r\n//     view\r\n//     returns (bool buy)\r\n//   {\r\n//     buy = (Deals[DEALID].buyerAddr == _buyer);\r\n//   }\r\n\r\n//   function CreateSmartLock(bytes32 serialNum, uint256 _unitPrice, uint256 _startTime, uint256 _endTime, uint256 _now)\r\n//     external\r\n//     returns (bytes32 _lockID)\r\n//   {\r\n//     _lockID = keccak256(abi.encodePacked(msg.sender, _now)); // keccak256 is cheaper than sha256\r\n//     require(SmartLocks[_lockID].owner == address(0),\"CreateSmartLock Require: SmartLock Already Exist!\");\r\n//     SmartLocks[_lockID] = SmartLock(\r\n//       _lockID,\r\n//       msg.sender,\r\n//       _unitPrice,\r\n//       _startTime,\r\n//       _endTime,\r\n//       serialNum);\r\n//     emit NewSmartLock(_lockID, msg.sender, serialNum);\r\n//   }\r\n\r\n//   function DeleteSmartLock(bytes32 SLID, address owner)\r\n//     external\r\n//     returns (bool success)\r\n//   {\r\n//     require(ExistSmartLock(SLID) == true, \"ExistSmartLock: SmartLock Not Exist!\");\r\n//     require(OwnSmartLock(SLID, owner) == true, \"OwnSmartLock: Current user does not own this lock!\");\r\n//     if (LastCheckOutTimeList[SLID] < now){\r\n//       delete SmartLocks[SLID];\r\n//       success = true;\r\n//     } else {\r\n//       success = false;\r\n//     }\r\n//     emit DeleteLock(SLID, success);\r\n//   }\r\n\r\n//   function CreateDeal(bytes32 SLID, address sellerAddr, uint256 checkInTime, uint256 checkOutTime)\r\n//     external\r\n//     payable\r\n//     ValidDuration(SLID, checkInTime, checkOutTime)\r\n//     returns (bytes32 DEALID)\r\n//   {\r\n//     require(ExistSmartLock(SLID) == true, \"ExistSmartLock: SmartLock Not Exist!\");\r\n//     require(OwnSmartLock(SLID, sellerAddr) == true, \"OwnSmartLock: Current user does not own this lock!\");\r\n\r\n//     DEALID = keccak256(abi.encodePacked(\r\n//       SLID,\r\n//       msg.sender,\r\n//       checkInTime,\r\n//       now));\r\n//     // require(Deals[DEALID].sellerAddr == address(0), \"CreateDeal Require: Deal Already Exist!\");\r\n//     // uint256 totalAmount = ((checkOutTime - checkInTime) / (60 * 60 * 24)) * SmartLocks[SLID].unitPrice * 10 * 1 finney;\r\n//     // transform from second to day; transform the unit of price from 0.01ETH to 1ETH;\r\n//     Deals[DEALID] = Deal(\r\n//       DEALID,\r\n//       SLID,\r\n//       sellerAddr,\r\n//       msg.sender,\r\n//       msg.value,\r\n//       checkInTime,\r\n//       checkOutTime);\r\n\r\n//     if(LastCheckOutTimeList[SLID] < checkOutTime){\r\n//       LastCheckOutTimeList[SLID] = checkOutTime;\r\n//     }\r\n\r\n//     emit NewDeal(\r\n//       DEALID,\r\n//       SLID,\r\n//       sellerAddr,\r\n//       msg.sender,\r\n//       msg.value,\r\n//       checkInTime,\r\n//       checkOutTime);\r\n//   }\r\n\r\n//   function CheckIn(bytes32 SLID, bytes32 DEALID)\r\n//     external\r\n//     returns (bool success)\r\n//   {\r\n//     require(ExistSmartLock(SLID) == true, \"ExistSmartLock: SmartLock Not Exist!\");\r\n//     require(BuySmartLock(DEALID, msg.sender) == true, \"BuySmartLock: Current user has not bought this lock! \");\r\n//     Deals[DEALID].sellerAddr.transfer(Deals[DEALID].totalAmount);\r\n//     success = true;\r\n//     emit WithdrawableDeal(\r\n//       DEALID,\r\n//       SLID,\r\n//       Deals[DEALID].totalAmount,\r\n//       Deals[DEALID].sellerAddr\r\n//     );\r\n//   }\r\n\r\n//   /*\r\n//   * Get function for checking the contract and lock info\r\n//   *\r\n//   */\r\n\r\n//   function getSmartLock(bytes32 _SLID)\r\n//     public\r\n//     view\r\n//     returns(bytes32 SLID, address owner, uint256 unitPrice, uint256 startTime, uint256 endTime)\r\n//   {\r\n//     require(ExistSmartLock(_SLID) == true, \"ExistSmartLock: SmartLock Not Exist!\");\r\n//     SmartLock storage c = SmartLocks[_SLID];\r\n//     return (_SLID, c.owner, c.unitPrice, c.startTime, c.endTime);\r\n//   }\r\n\r\n//   function getDeal(bytes32 _DEALID)\r\n//     public\r\n//     view\r\n//     ExistDeal(_DEALID)\r\n//     returns(\r\n//       bytes32 SLID,\r\n//       address sellerAddr,\r\n//       address buyerAddr,\r\n//       uint256 totalAmount,\r\n//       uint256 checkInTime,\r\n//       uint256 checkOutTime)\r\n//   {\r\n//     Deal storage d = Deals[_DEALID];\r\n//     return (d.SLID, d.sellerAddr, d.buyerAddr, d.totalAmount,\r\n//       d.checkInTime, d.checkOutTime);\r\n//   }\r\n\r\n//   function getCreator()\r\n//     public\r\n//     view\r\n//     returns(address _c)\r\n//   {\r\n//     _c = creator;\r\n//   }\r\n\r\n//   function getContractBalance()\r\n//     public\r\n//     view\r\n//     returns(uint256 balance)\r\n//   {\r\n//     balance = address(this).balance;\r\n//   }\r\n\r\n//   // Smart Lock Control Part\r\n//   function unlock(bytes32 SLID)\r\n//     external\r\n//   {\r\n//     emit Newunlock(msg.sender, SmartLocks[SLID].serialNum, now);\r\n//   }\r\n\r\n//   function purchase(address hostaddr)\r\n//     external\r\n//   {\r\n//     emit SetNewUser(msg.sender, hostaddr, now);\r\n//   }\r\n\r\n//   function refresh(address hostaddr)\r\n//     external\r\n//   {\r\n//     emit HostRefresh(msg.sender, hostaddr, now);\r\n//   }\r\n\r\n//   function checkConnection()\r\n//     external\r\n//     view\r\n//   returns(address a)\r\n//   {\r\n//     a = address(this);\r\n//   }\r\n\r\n//   function() external payable\r\n//   {\r\n\r\n//   }\r\n\r\n// }\r\n",
  "sourcePath": "D:\\GitRepository\\Flatanywhere\\truffle_part\\contracts\\Flatanywhere.sol",
  "compiler": {
    "name": "solc",
    "version": "0.4.25+commit.59dbf8f1.Emscripten.clang"
  },
  "schemaVersion": "2.0.1",
  "updatedAt": "2019-04-21T10:42:52.662Z"
}